{
  "contractName": "EthSwap",
  "abi": [
    {
      "inputs": [],
      "stateMutability": "nonpayable",
      "type": "constructor"
    },
    {
      "anonymous": false,
      "inputs": [
        {
          "indexed": true,
          "internalType": "address",
          "name": "owner",
          "type": "address"
        },
        {
          "indexed": true,
          "internalType": "address",
          "name": "spender",
          "type": "address"
        },
        {
          "indexed": false,
          "internalType": "uint256",
          "name": "value",
          "type": "uint256"
        }
      ],
      "name": "Approval",
      "type": "event"
    },
    {
      "anonymous": false,
      "inputs": [
        {
          "indexed": false,
          "internalType": "address",
          "name": "account",
          "type": "address"
        },
        {
          "indexed": false,
          "internalType": "address",
          "name": "token",
          "type": "address"
        },
        {
          "indexed": false,
          "internalType": "uint256",
          "name": "amount",
          "type": "uint256"
        },
        {
          "indexed": false,
          "internalType": "uint256",
          "name": "rate",
          "type": "uint256"
        }
      ],
      "name": "TokensPurchased",
      "type": "event"
    },
    {
      "anonymous": false,
      "inputs": [
        {
          "indexed": false,
          "internalType": "address",
          "name": "account",
          "type": "address"
        },
        {
          "indexed": false,
          "internalType": "address",
          "name": "token",
          "type": "address"
        },
        {
          "indexed": false,
          "internalType": "uint256",
          "name": "amount",
          "type": "uint256"
        },
        {
          "indexed": false,
          "internalType": "uint256",
          "name": "rate",
          "type": "uint256"
        }
      ],
      "name": "TokensSold",
      "type": "event"
    },
    {
      "anonymous": false,
      "inputs": [
        {
          "indexed": true,
          "internalType": "address",
          "name": "from",
          "type": "address"
        },
        {
          "indexed": true,
          "internalType": "address",
          "name": "to",
          "type": "address"
        },
        {
          "indexed": false,
          "internalType": "uint256",
          "name": "value",
          "type": "uint256"
        }
      ],
      "name": "Transfer",
      "type": "event"
    },
    {
      "inputs": [
        {
          "internalType": "address",
          "name": "owner",
          "type": "address"
        },
        {
          "internalType": "address",
          "name": "spender",
          "type": "address"
        }
      ],
      "name": "allowance",
      "outputs": [
        {
          "internalType": "uint256",
          "name": "",
          "type": "uint256"
        }
      ],
      "stateMutability": "view",
      "type": "function",
      "constant": true
    },
    {
      "inputs": [
        {
          "internalType": "address",
          "name": "spender",
          "type": "address"
        },
        {
          "internalType": "uint256",
          "name": "amount",
          "type": "uint256"
        }
      ],
      "name": "approve",
      "outputs": [
        {
          "internalType": "bool",
          "name": "",
          "type": "bool"
        }
      ],
      "stateMutability": "nonpayable",
      "type": "function"
    },
    {
      "inputs": [
        {
          "internalType": "address",
          "name": "account",
          "type": "address"
        }
      ],
      "name": "balanceOf",
      "outputs": [
        {
          "internalType": "uint256",
          "name": "",
          "type": "uint256"
        }
      ],
      "stateMutability": "view",
      "type": "function",
      "constant": true
    },
    {
      "inputs": [],
      "name": "decimals",
      "outputs": [
        {
          "internalType": "uint8",
          "name": "",
          "type": "uint8"
        }
      ],
      "stateMutability": "view",
      "type": "function",
      "constant": true
    },
    {
      "inputs": [
        {
          "internalType": "address",
          "name": "spender",
          "type": "address"
        },
        {
          "internalType": "uint256",
          "name": "subtractedValue",
          "type": "uint256"
        }
      ],
      "name": "decreaseAllowance",
      "outputs": [
        {
          "internalType": "bool",
          "name": "",
          "type": "bool"
        }
      ],
      "stateMutability": "nonpayable",
      "type": "function"
    },
    {
      "inputs": [
        {
          "internalType": "address",
          "name": "spender",
          "type": "address"
        },
        {
          "internalType": "uint256",
          "name": "addedValue",
          "type": "uint256"
        }
      ],
      "name": "increaseAllowance",
      "outputs": [
        {
          "internalType": "bool",
          "name": "",
          "type": "bool"
        }
      ],
      "stateMutability": "nonpayable",
      "type": "function"
    },
    {
      "inputs": [],
      "name": "name",
      "outputs": [
        {
          "internalType": "string",
          "name": "",
          "type": "string"
        }
      ],
      "stateMutability": "view",
      "type": "function",
      "constant": true
    },
    {
      "inputs": [],
      "name": "rate",
      "outputs": [
        {
          "internalType": "uint256",
          "name": "",
          "type": "uint256"
        }
      ],
      "stateMutability": "view",
      "type": "function",
      "constant": true
    },
    {
      "inputs": [],
      "name": "symbol",
      "outputs": [
        {
          "internalType": "string",
          "name": "",
          "type": "string"
        }
      ],
      "stateMutability": "view",
      "type": "function",
      "constant": true
    },
    {
      "inputs": [],
      "name": "token",
      "outputs": [
        {
          "internalType": "contract ERC20",
          "name": "",
          "type": "address"
        }
      ],
      "stateMutability": "view",
      "type": "function",
      "constant": true
    },
    {
      "inputs": [],
      "name": "totalSupply",
      "outputs": [
        {
          "internalType": "uint256",
          "name": "",
          "type": "uint256"
        }
      ],
      "stateMutability": "view",
      "type": "function",
      "constant": true
    },
    {
      "inputs": [
        {
          "internalType": "address",
          "name": "to",
          "type": "address"
        },
        {
          "internalType": "uint256",
          "name": "amount",
          "type": "uint256"
        }
      ],
      "name": "transfer",
      "outputs": [
        {
          "internalType": "bool",
          "name": "",
          "type": "bool"
        }
      ],
      "stateMutability": "nonpayable",
      "type": "function"
    },
    {
      "inputs": [
        {
          "internalType": "address",
          "name": "from",
          "type": "address"
        },
        {
          "internalType": "address",
          "name": "to",
          "type": "address"
        },
        {
          "internalType": "uint256",
          "name": "amount",
          "type": "uint256"
        }
      ],
      "name": "transferFrom",
      "outputs": [
        {
          "internalType": "bool",
          "name": "",
          "type": "bool"
        }
      ],
      "stateMutability": "nonpayable",
      "type": "function"
    },
    {
      "inputs": [],
      "name": "buyTokens",
      "outputs": [],
      "stateMutability": "payable",
      "type": "function",
      "payable": true
    },
    {
      "inputs": [
        {
          "internalType": "uint256",
          "name": "_amount",
          "type": "uint256"
        }
      ],
      "name": "sellTokens",
      "outputs": [],
      "stateMutability": "nonpayable",
      "type": "function"
    }
  ],
  "bytecode": "0x608060405260646006553480156200001657600080fd5b506040518060400160405280600a81526020017f546f6b656e2053776170000000000000000000000000000000000000000000008152506040518060400160405280600381526020017f544b4e000000000000000000000000000000000000000000000000000000000081525081600390805190602001906200009b929190620002ad565b508060049080519060200190620000b4929190620002ad565b5050506200010933620000d56200010f640100000000026401000000009004565b60ff16600a620000e69190620004b8565b6064620000f49190620005f5565b62000118640100000000026401000000009004565b62000701565b60006012905090565b600073ffffffffffffffffffffffffffffffffffffffff168273ffffffffffffffffffffffffffffffffffffffff1614156200018b576040517f08c379a00000000000000000000000000000000000000000000000000000000081526004016200018290620003b0565b60405180910390fd5b620001a860008383620002a3640100000000026401000000009004565b8060026000828254620001bc919062000400565b92505081905550806000808473ffffffffffffffffffffffffffffffffffffffff1673ffffffffffffffffffffffffffffffffffffffff168152602001908152602001600020600082825462000213919062000400565b925050819055508173ffffffffffffffffffffffffffffffffffffffff16600073ffffffffffffffffffffffffffffffffffffffff167fddf252ad1be2c89b69c2b068fc378daa952ba7f163c4a11628f55a4df523b3ef836040516200027a9190620003d2565b60405180910390a36200029f60008383620002a8640100000000026401000000009004565b5050565b505050565b505050565b828054620002bb9062000660565b90600052602060002090601f016020900481019282620002df57600085556200032b565b82601f10620002fa57805160ff19168380011785556200032b565b828001600101855582156200032b579182015b828111156200032a5782518255916020019190600101906200030d565b5b5090506200033a91906200033e565b5090565b5b80821115620003595760008160009055506001016200033f565b5090565b60006200036c601f83620003ef565b91507f45524332303a206d696e7420746f20746865207a65726f2061646472657373006000830152602082019050919050565b620003aa8162000656565b82525050565b60006020820190508181036000830152620003cb816200035d565b9050919050565b6000602082019050620003e960008301846200039f565b92915050565b600082825260208201905092915050565b60006200040d8262000656565b91506200041a8362000656565b9250827fffffffffffffffffffffffffffffffffffffffffffffffffffffffffffffffff0382111562000452576200045162000696565b5b828201905092915050565b6000808291508390505b6001851115620004af5780860481111562000487576200048662000696565b5b6001851615620004975780820291505b8081029050620004a785620006f4565b945062000467565b94509492505050565b6000620004c58262000656565b9150620004d28362000656565b9250620005017fffffffffffffffffffffffffffffffffffffffffffffffffffffffffffffffff848462000509565b905092915050565b6000826200051b5760019050620005ee565b816200052b5760009050620005ee565b81600181146200054457600281146200054f5762000585565b6001915050620005ee565b60ff84111562000564576200056362000696565b5b8360020a9150848211156200057e576200057d62000696565b5b50620005ee565b5060208310610133831016604e8410600b8410161715620005bf5782820a905083811115620005b957620005b862000696565b5b620005ee565b620005ce84848460016200045d565b92509050818404811115620005e857620005e762000696565b5b81810290505b9392505050565b6000620006028262000656565b91506200060f8362000656565b9250817fffffffffffffffffffffffffffffffffffffffffffffffffffffffffffffffff04831182151516156200064b576200064a62000696565b5b828202905092915050565b6000819050919050565b600060028204905060018216806200067957607f821691505b6020821081141562000690576200068f620006c5565b5b50919050565b7f4e487b7100000000000000000000000000000000000000000000000000000000600052601160045260246000fd5b7f4e487b7100000000000000000000000000000000000000000000000000000000600052602260045260246000fd5b6000600282049050919050565b611bb080620007116000396000f3fe608060405260043610610105576000357c0100000000000000000000000000000000000000000000000000000000900480636c11bcd3116100a7578063a9059cbb11610076578063a9059cbb1461033b578063d0febe4c14610378578063dd62ed3e14610382578063fc0c546a146103bf57610105565b80636c11bcd31461026d57806370a082311461029657806395d89b41146102d3578063a457c2d7146102fe57610105565b806323b872dd116100e357806323b872dd1461019d5780632c4e722e146101da578063313ce56714610205578063395093511461023057610105565b806306fdde031461010a578063095ea7b31461013557806318160ddd14610172575b600080fd5b34801561011657600080fd5b5061011f6103ea565b60405161012c9190611784565b60405180910390f35b34801561014157600080fd5b5061015c600480360381019061015791906112af565b61047c565b604051610169919061174e565b60405180910390f35b34801561017e57600080fd5b5061018761049f565b6040516101949190611886565b60405180910390f35b3480156101a957600080fd5b506101c460048036038101906101bf9190611260565b6104a9565b6040516101d1919061174e565b60405180910390f35b3480156101e657600080fd5b506101ef6104d8565b6040516101fc9190611886565b60405180910390f35b34801561021157600080fd5b5061021a6104de565b60405161022791906118a1565b60405180910390f35b34801561023c57600080fd5b50610257600480360381019061025291906112af565b6104e7565b604051610264919061174e565b60405180910390f35b34801561027957600080fd5b50610294600480360381019061028f9190611314565b610591565b005b3480156102a257600080fd5b506102bd60048036038101906102b891906111fb565b610814565b6040516102ca9190611886565b60405180910390f35b3480156102df57600080fd5b506102e861085c565b6040516102f59190611784565b60405180910390f35b34801561030a57600080fd5b50610325600480360381019061032091906112af565b6108ee565b604051610332919061174e565b60405180910390f35b34801561034757600080fd5b50610362600480360381019061035d91906112af565b6109d8565b60405161036f919061174e565b60405180910390f35b6103806109fb565b005b34801561038e57600080fd5b506103a960048036038101906103a49190611224565b610c10565b6040516103b69190611886565b60405180910390f35b3480156103cb57600080fd5b506103d4610c97565b6040516103e19190611769565b60405180910390f35b6060600380546103f990611a65565b80601f016020809104026020016040519081016040528092919081815260200182805461042590611a65565b80156104725780601f1061044757610100808354040283529160200191610472565b820191906000526020600020905b81548152906001019060200180831161045557829003601f168201915b5050505050905090565b600080610487610cbd565b9050610494818585610cc5565b600191505092915050565b6000600254905090565b6000806104b4610cbd565b90506104c1858285610e90565b6104cc858585610f1c565b60019150509392505050565b60065481565b60006012905090565b6000806104f2610cbd565b9050610586818585600160008673ffffffffffffffffffffffffffffffffffffffff1673ffffffffffffffffffffffffffffffffffffffff16815260200190815260200160002060008973ffffffffffffffffffffffffffffffffffffffff1673ffffffffffffffffffffffffffffffffffffffff1681526020019081526020016000205461058191906118d8565b610cc5565b600191505092915050565b80600560009054906101000a900473ffffffffffffffffffffffffffffffffffffffff1673ffffffffffffffffffffffffffffffffffffffff166370a08231336040518263ffffffff167c0100000000000000000000000000000000000000000000000000000000028152600401610609919061168e565b60206040518083038186803b15801561062157600080fd5b505afa158015610635573d6000803e3d6000fd5b505050506040513d601f19601f82011682018060405250810190610659919061133d565b101561066457600080fd5b600060065482610674919061192e565b9050803073ffffffffffffffffffffffffffffffffffffffff1631101561069a57600080fd5b600560009054906101000a900473ffffffffffffffffffffffffffffffffffffffff1673ffffffffffffffffffffffffffffffffffffffff166323b872dd3330856040518463ffffffff167c0100000000000000000000000000000000000000000000000000000000028152600401610715939291906116a9565b602060405180830381600087803b15801561072f57600080fd5b505af1158015610743573d6000803e3d6000fd5b505050506040513d601f19601f8201168201806040525081019061076791906112eb565b503373ffffffffffffffffffffffffffffffffffffffff166108fc829081150290604051600060405180830381858888f193505050501580156107ae573d6000803e3d6000fd5b507f697c42d55a5e1fed3f464ec6f38b32546a0bd368dc8068b065c67566d73f329033600560009054906101000a900473ffffffffffffffffffffffffffffffffffffffff168460065460405161080894939291906116e0565b60405180910390a15050565b60008060008373ffffffffffffffffffffffffffffffffffffffff1673ffffffffffffffffffffffffffffffffffffffff168152602001908152602001600020549050919050565b60606004805461086b90611a65565b80601f016020809104026020016040519081016040528092919081815260200182805461089790611a65565b80156108e45780601f106108b9576101008083540402835291602001916108e4565b820191906000526020600020905b8154815290600101906020018083116108c757829003601f168201915b5050505050905090565b6000806108f9610cbd565b90506000600160008373ffffffffffffffffffffffffffffffffffffffff1673ffffffffffffffffffffffffffffffffffffffff16815260200190815260200160002060008673ffffffffffffffffffffffffffffffffffffffff1673ffffffffffffffffffffffffffffffffffffffff168152602001908152602001600020549050838110156109bf576040517f08c379a00000000000000000000000000000000000000000000000000000000081526004016109b690611866565b60405180910390fd5b6109cc8286868403610cc5565b60019250505092915050565b6000806109e3610cbd565b90506109f0818585610f1c565b600191505092915050565b600060065434610a0b919061195f565b905080600560009054906101000a900473ffffffffffffffffffffffffffffffffffffffff1673ffffffffffffffffffffffffffffffffffffffff166370a08231306040518263ffffffff167c0100000000000000000000000000000000000000000000000000000000028152600401610a85919061168e565b60206040518083038186803b158015610a9d57600080fd5b505afa158015610ab1573d6000803e3d6000fd5b505050506040513d601f19601f82011682018060405250810190610ad5919061133d565b1015610ae057600080fd5b600560009054906101000a900473ffffffffffffffffffffffffffffffffffffffff1673ffffffffffffffffffffffffffffffffffffffff1663a9059cbb33836040518363ffffffff167c0100000000000000000000000000000000000000000000000000000000028152600401610b59929190611725565b602060405180830381600087803b158015610b7357600080fd5b505af1158015610b87573d6000803e3d6000fd5b505050506040513d601f19601f82011682018060405250810190610bab91906112eb565b507f6faf93231a456e552dbc9961f58d9713ee4f2e69d15f1975b050ef0911053a7b33600560009054906101000a900473ffffffffffffffffffffffffffffffffffffffff1683600654604051610c0594939291906116e0565b60405180910390a150565b6000600160008473ffffffffffffffffffffffffffffffffffffffff1673ffffffffffffffffffffffffffffffffffffffff16815260200190815260200160002060008373ffffffffffffffffffffffffffffffffffffffff1673ffffffffffffffffffffffffffffffffffffffff16815260200190815260200160002054905092915050565b600560009054906101000a900473ffffffffffffffffffffffffffffffffffffffff1681565b600033905090565b600073ffffffffffffffffffffffffffffffffffffffff168373ffffffffffffffffffffffffffffffffffffffff161415610d35576040517f08c379a0000000000000000000000000000000000000000000000000000000008152600401610d2c90611846565b60405180910390fd5b600073ffffffffffffffffffffffffffffffffffffffff168273ffffffffffffffffffffffffffffffffffffffff161415610da5576040517f08c379a0000000000000000000000000000000000000000000000000000000008152600401610d9c906117c6565b60405180910390fd5b80600160008573ffffffffffffffffffffffffffffffffffffffff1673ffffffffffffffffffffffffffffffffffffffff16815260200190815260200160002060008473ffffffffffffffffffffffffffffffffffffffff1673ffffffffffffffffffffffffffffffffffffffff168152602001908152602001600020819055508173ffffffffffffffffffffffffffffffffffffffff168373ffffffffffffffffffffffffffffffffffffffff167f8c5be1e5ebec7d5bd14f71427d1e84f3dd0314c0f7b2291e5b200ac8c7c3b92583604051610e839190611886565b60405180910390a3505050565b6000610e9c8484610c10565b90507fffffffffffffffffffffffffffffffffffffffffffffffffffffffffffffffff8114610f165781811015610f08576040517f08c379a0000000000000000000000000000000000000000000000000000000008152600401610eff906117e6565b60405180910390fd5b610f158484848403610cc5565b5b50505050565b600073ffffffffffffffffffffffffffffffffffffffff168373ffffffffffffffffffffffffffffffffffffffff161415610f8c576040517f08c379a0000000000000000000000000000000000000000000000000000000008152600401610f8390611826565b60405180910390fd5b600073ffffffffffffffffffffffffffffffffffffffff168273ffffffffffffffffffffffffffffffffffffffff161415610ffc576040517f08c379a0000000000000000000000000000000000000000000000000000000008152600401610ff3906117a6565b60405180910390fd5b61100783838361119d565b60008060008573ffffffffffffffffffffffffffffffffffffffff1673ffffffffffffffffffffffffffffffffffffffff1681526020019081526020016000205490508181101561108d576040517f08c379a000000000000000000000000000000000000000000000000000000000815260040161108490611806565b60405180910390fd5b8181036000808673ffffffffffffffffffffffffffffffffffffffff1673ffffffffffffffffffffffffffffffffffffffff16815260200190815260200160002081905550816000808573ffffffffffffffffffffffffffffffffffffffff1673ffffffffffffffffffffffffffffffffffffffff168152602001908152602001600020600082825461112091906118d8565b925050819055508273ffffffffffffffffffffffffffffffffffffffff168473ffffffffffffffffffffffffffffffffffffffff167fddf252ad1be2c89b69c2b068fc378daa952ba7f163c4a11628f55a4df523b3ef846040516111849190611886565b60405180910390a36111978484846111a2565b50505050565b505050565b505050565b6000813590506111b681611b35565b92915050565b6000815190506111cb81611b4c565b92915050565b6000813590506111e081611b63565b92915050565b6000815190506111f581611b63565b92915050565b60006020828403121561120d57600080fd5b600061121b848285016111a7565b91505092915050565b6000806040838503121561123757600080fd5b6000611245858286016111a7565b9250506020611256858286016111a7565b9150509250929050565b60008060006060848603121561127557600080fd5b6000611283868287016111a7565b9350506020611294868287016111a7565b92505060406112a5868287016111d1565b9150509250925092565b600080604083850312156112c257600080fd5b60006112d0858286016111a7565b92505060206112e1858286016111d1565b9150509250929050565b6000602082840312156112fd57600080fd5b600061130b848285016111bc565b91505092915050565b60006020828403121561132657600080fd5b6000611334848285016111d1565b91505092915050565b60006020828403121561134f57600080fd5b600061135d848285016111e6565b91505092915050565b61136f816119b9565b82525050565b61137e816119cb565b82525050565b61138d81611a0e565b82525050565b600061139e826118bc565b6113a881856118c7565b93506113b8818560208601611a32565b6113c181611b24565b840191505092915050565b60006113d96023836118c7565b91507f45524332303a207472616e7366657220746f20746865207a65726f206164647260008301527f65737300000000000000000000000000000000000000000000000000000000006020830152604082019050919050565b600061143f6022836118c7565b91507f45524332303a20617070726f766520746f20746865207a65726f20616464726560008301527f73730000000000000000000000000000000000000000000000000000000000006020830152604082019050919050565b60006114a5601d836118c7565b91507f45524332303a20696e73756666696369656e7420616c6c6f77616e63650000006000830152602082019050919050565b60006114e56026836118c7565b91507f45524332303a207472616e7366657220616d6f756e742065786365656473206260008301527f616c616e636500000000000000000000000000000000000000000000000000006020830152604082019050919050565b600061154b6025836118c7565b91507f45524332303a207472616e736665722066726f6d20746865207a65726f20616460008301527f64726573730000000000000000000000000000000000000000000000000000006020830152604082019050919050565b60006115b16024836118c7565b91507f45524332303a20617070726f76652066726f6d20746865207a65726f2061646460008301527f72657373000000000000000000000000000000000000000000000000000000006020830152604082019050919050565b60006116176025836118c7565b91507f45524332303a2064656372656173656420616c6c6f77616e63652062656c6f7760008301527f207a65726f0000000000000000000000000000000000000000000000000000006020830152604082019050919050565b611679816119f7565b82525050565b61168881611a01565b82525050565b60006020820190506116a36000830184611366565b92915050565b60006060820190506116be6000830186611366565b6116cb6020830185611366565b6116d86040830184611670565b949350505050565b60006080820190506116f56000830187611366565b6117026020830186611366565b61170f6040830185611670565b61171c6060830184611670565b95945050505050565b600060408201905061173a6000830185611366565b6117476020830184611670565b9392505050565b60006020820190506117636000830184611375565b92915050565b600060208201905061177e6000830184611384565b92915050565b6000602082019050818103600083015261179e8184611393565b905092915050565b600060208201905081810360008301526117bf816113cc565b9050919050565b600060208201905081810360008301526117df81611432565b9050919050565b600060208201905081810360008301526117ff81611498565b9050919050565b6000602082019050818103600083015261181f816114d8565b9050919050565b6000602082019050818103600083015261183f8161153e565b9050919050565b6000602082019050818103600083015261185f816115a4565b9050919050565b6000602082019050818103600083015261187f8161160a565b9050919050565b600060208201905061189b6000830184611670565b92915050565b60006020820190506118b6600083018461167f565b92915050565b600081519050919050565b600082825260208201905092915050565b60006118e3826119f7565b91506118ee836119f7565b9250827fffffffffffffffffffffffffffffffffffffffffffffffffffffffffffffffff0382111561192357611922611a97565b5b828201905092915050565b6000611939826119f7565b9150611944836119f7565b92508261195457611953611ac6565b5b828204905092915050565b600061196a826119f7565b9150611975836119f7565b9250817fffffffffffffffffffffffffffffffffffffffffffffffffffffffffffffffff04831182151516156119ae576119ad611a97565b5b828202905092915050565b60006119c4826119d7565b9050919050565b60008115159050919050565b600073ffffffffffffffffffffffffffffffffffffffff82169050919050565b6000819050919050565b600060ff82169050919050565b6000611a1982611a20565b9050919050565b6000611a2b826119d7565b9050919050565b60005b83811015611a50578082015181840152602081019050611a35565b83811115611a5f576000848401525b50505050565b60006002820490506001821680611a7d57607f821691505b60208210811415611a9157611a90611af5565b5b50919050565b7f4e487b7100000000000000000000000000000000000000000000000000000000600052601160045260246000fd5b7f4e487b7100000000000000000000000000000000000000000000000000000000600052601260045260246000fd5b7f4e487b7100000000000000000000000000000000000000000000000000000000600052602260045260246000fd5b6000601f19601f8301169050919050565b611b3e816119b9565b8114611b4957600080fd5b50565b611b55816119cb565b8114611b6057600080fd5b50565b611b6c816119f7565b8114611b7757600080fd5b5056fea2646970667358221220a33369d93750507c23df58a143dff0701784242721521692d081fe2f98b7530e64736f6c63430008000033",
  "immutableReferences": {},
  "source": "// SPDX-License-Identifier: MIT\npragma solidity ^0.8.0;\n\nimport \"@openzeppelin/contracts/token/ERC20/ERC20.sol\";\n\ncontract EthSwap is ERC20 {\n  ERC20 public token;\n  uint public rate = 100;\n\n\n  event TokensPurchased(\n    address account,\n    address token,\n    uint amount,\n    uint rate\n  );\n\n  event TokensSold(\n    address account,\n    address token,\n    uint amount,\n    uint rate\n  );\n\n  constructor() ERC20(\"Token Swap\", \"TKN\") {\n   _mint(msg.sender, 100 * 10**uint(decimals()));\n  }\n\n\n\n  function buyTokens() public payable {\n    // Calculate the number of tokens to buy\n    uint tokenAmount = msg.value * rate;\n\n    // Require that EthSwap has enough tokens\n    require(token.balanceOf(address(this)) >= tokenAmount);\n\n    // Transfer tokens to the user\n    token.transfer(msg.sender, tokenAmount);\n\n    // Emit an event\n    emit TokensPurchased(msg.sender, address(token), tokenAmount, rate);\n  }\n\n   function sellTokens(uint _amount) public {\n    // User can't sell more tokens than they have\n    require(token.balanceOf(msg.sender) >= _amount);\n\n    // Calculate the amount of Ether to redeem\n    uint etherAmount = _amount / rate;\n\n    // Require that EthSwap has enough Ether\n    require(address(this).balance >= etherAmount);\n\n    // Perform sale\n    token.transferFrom(msg.sender, address(this), _amount);\n    payable(msg.sender).transfer(etherAmount);\n\n    // Emit an event\n    emit TokensSold(msg.sender, address(token), _amount, rate);\n  }\n\n\n\n \n\n\n}\n",
  "sourcePath": "/Users/alitanveer/Desktop/EthSwap-Project/contracts/EthSwap.sol",
  "compiler": {
    "name": "solc",
    "version": "0.8.0+commit.c7dfd78e.Emscripten.clang"
  },
  "schemaVersion": "3.4.3",
  "updatedAt": "2022-03-15T17:01:54.653Z",
  "networkType": "ethereum",
  "devdoc": {
    "kind": "dev",
    "methods": {
      "allowance(address,address)": {
        "details": "See {IERC20-allowance}."
      },
      "approve(address,uint256)": {
        "details": "See {IERC20-approve}. NOTE: If `amount` is the maximum `uint256`, the allowance is not updated on `transferFrom`. This is semantically equivalent to an infinite approval. Requirements: - `spender` cannot be the zero address."
      },
      "balanceOf(address)": {
        "details": "See {IERC20-balanceOf}."
      },
      "decimals()": {
        "details": "Returns the number of decimals used to get its user representation. For example, if `decimals` equals `2`, a balance of `505` tokens should be displayed to a user as `5.05` (`505 / 10 ** 2`). Tokens usually opt for a value of 18, imitating the relationship between Ether and Wei. This is the value {ERC20} uses, unless this function is overridden; NOTE: This information is only used for _display_ purposes: it in no way affects any of the arithmetic of the contract, including {IERC20-balanceOf} and {IERC20-transfer}."
      },
      "decreaseAllowance(address,uint256)": {
        "details": "Atomically decreases the allowance granted to `spender` by the caller. This is an alternative to {approve} that can be used as a mitigation for problems described in {IERC20-approve}. Emits an {Approval} event indicating the updated allowance. Requirements: - `spender` cannot be the zero address. - `spender` must have allowance for the caller of at least `subtractedValue`."
      },
      "increaseAllowance(address,uint256)": {
        "details": "Atomically increases the allowance granted to `spender` by the caller. This is an alternative to {approve} that can be used as a mitigation for problems described in {IERC20-approve}. Emits an {Approval} event indicating the updated allowance. Requirements: - `spender` cannot be the zero address."
      },
      "name()": {
        "details": "Returns the name of the token."
      },
      "symbol()": {
        "details": "Returns the symbol of the token, usually a shorter version of the name."
      },
      "totalSupply()": {
        "details": "See {IERC20-totalSupply}."
      },
      "transfer(address,uint256)": {
        "details": "See {IERC20-transfer}. Requirements: - `to` cannot be the zero address. - the caller must have a balance of at least `amount`."
      },
      "transferFrom(address,address,uint256)": {
        "details": "See {IERC20-transferFrom}. Emits an {Approval} event indicating the updated allowance. This is not required by the EIP. See the note at the beginning of {ERC20}. NOTE: Does not update the allowance if the current allowance is the maximum `uint256`. Requirements: - `from` and `to` cannot be the zero address. - `from` must have a balance of at least `amount`. - the caller must have allowance for ``from``'s tokens of at least `amount`."
      }
    },
    "version": 1
  },
  "userdoc": {
    "kind": "user",
    "methods": {},
    "version": 1
  }
}